:020000002D2BA6
:100006001D308312031387004E08860015308700C3
:0800160000001D308700080006
:10001E001C308312031387004E08860014308700AD
:08002E0000001C3087000800EF
:0E0036008312031321088A00200882000800AC
:10004400831203134B08803EF00005300318013E71
:10005400F1007008A0007108A1001B208A110A1287
:10006400F00070084907CE000F204A08CE00032094
:02007400080082
:10007600831203134B08803EF00005300318013E3F
:10008600F1007008A0007108A1001B208A110A1255
:10009600F00070084907CE004C08031955280330B4
:1000A600CD005628CD014D08CE070F204A08CE00B8
:0400B600032008001B
:1000BA0083120313460884008001460A84008001E3
:1000CA00460AF000700A8400800103304607840063
:1000DA00800103304607F000700A84008001053071
:1000EA0046078400800105304607F000700A840044
:1000FA008001073046078400800107304607F00078
:10010A00700A8400800109304607840080010A30A1
:08011A00460784008001080083
:100122000330831203134607F00047087007F100FB
:1001320071088400C0300005F0004808F00471081E
:100142008400700880004030C90003304607F00088
:100152004708700784000008CA00460884000008A7
:0A016200CB004708CC003B2008004A
:10016C0083120313FB01FA01F9018030F800F10C42
:10017C00F00C031CCA287408F90775080318750FCE
:10018C00FA070318FB0A0310F01FD2287408FA07A9
:10019C0075080318750FFB07FB0CFA0CF90CF80C1F
:1001AC00031CBD287B08F3007A08F2007908F100E3
:0601BC007808F0000800C5
:1001C200831203137008F100F0010830FC0071087B
:1001D200F40C0318F028FC0BE928F1010034031099
:1001E200F528F40C0318F107F10CF00CFC0BF228C3
:0201F200080003
:1001F4000730831203134607F00047087007F10025
:1002040071088400F0300005F0004808F00471081B
:100214008400700880008030C90007304607F00071
:100224004708700784000008CA00460884000008D4
:0A023400CB004708CC003B20080077
:10023E008316031386018701831286011830870007
:02024E000800A6
:1002500008308312031387004130FC00EE30FD00AC
:10026000FD0B3029FC0B30290000183087000800F6
:100270000530831203134607F00047087007F100AA
:1002800071088400F0300005F0004808F00471089F
:100290008400700880006030C90005304607F00017
:1002A0004708700784000008CA0046088400000858
:0A02B000CB004708CC003B200800FB
:1002BA000530831203134607F00047087007F3005E
:1002CA00730884000F300005F2004808F000F00DB2
:1002DA007010F00D7010F00D7010F00D70107208A3
:1002EA00F00473088400700880006030C90005308B
:1002FA004607F0004708700784000008CA0046084D
:0E030A0084000008CB004708CC003B20080010
:100318000A30831203134607F30073088400C030C1
:100328000005F2004708F000F00D70107208F004A4
:100338007308840070088000C030C9000A3046077E
:1003480084000008CA00460884000008CB00222068
:0203580008009B
:10035A001B208A110A128000840AA00A0319A10A22
:08036A00F003031DAD2908009A
:100372000730831203134607F00047087007F300A3
:10038200730884000F300005F2004808F000F00DF9
:100392007010F00D7010F00D7010F00D70107208EA
:1003A200F00473088400700880008030C9000730B0
:1003B2004607F0004708700784000008CA00460894
:0E03C20084000008CB004708CC003B20080058
:1003D0000930831203134607F30073088400E330E7
:1003E0000005F2004708F000F00D7010F00D7010DD
:1003F0007208F0047308840070088000B030C900EF
:100400000930460784000008CA0046088400000836
:06041000CB0022200800D1
:100416000930831203134607F10071088400DF30A8
:100426000005F0007108840070088000B030C90033
:100436000930460784000008CA0046088400000800
:06044600CB00222008009B
:10044C00A03083120313C9004808CA004608840070
:10045C000008CB00222009304607F1007108840007
:10046C00FC300005F0004708F004710884007008A7
:10047C008000B030C9000930460784000008CA006B
:0C048C00460884000008CB002220080075
:1004980083120313460AF00047087007F100710839
:1004A8008400F0300005F0004808F004710884006A
:1004B800700880002030C900460AF000470870071D
:1004C80084000008CA00460884000008CB004708DA
:0604D800CC003B200800EF
:1004DE00DE2A831203134708840001308000480887
:1004EE0084006B308000102B4708840001308000A0
:1004FE004808840081308000102B470884000130AA
:10050E0080004808840098308000102B4708840033
:10051E000130800048088400B0308000102B47085E
:10052E0084000130800048088400CA308000102BFF
:10053E00470884000130800048088400E5308000C0
:10054E00102B4708840002308000480884000230D7
:10055E008000102B47088400023080004808840079
:10056E0020308000102B470884000230800048089D
:10057E00840041308000102B470884000230800038
:10058E004808840063308000102B47088400023036
:10059E0080004808840087308000102B47088400B4
:1005AE000230800048088400AE308000102B831289
:1005BE0003134608003A0319702A4608013A031934
:1005CE007B2A4608023A0319842A4608033A03197D
:1005DE008D2A4608043A0319962A4608053A031945
:1005EE009F2A4608063A0319A82A4608073A03190D
:1005FE00B12A4608083A0319BA2A4608093A0319D5
:10060E00C32A46080A3A0319CC2A46080B3A03199C
:04061E00D52A0800D1
:100622000930831203134607F10071088400DF309A
:100632000005F000F0167108840070088000B030E8
:10064200C9000930460784000008CA004608840031
:080652000008CB002220080083
:10065A0083160317890188011F211A30FC00F8301C
:10066A00FD00FD0B362BFC0B362B00002821223017
:10067A00C6005D20A2012D30C6005D200130AD000C
:10068A00BE0102303E020318022C0B30F0003E0875
:10069A00F400E1207008223EC600C7010230C800FB
:1006AA004C220B30F0003E08F400E1207008223E94
:1006BA00C600C7012930C80091200B30F0003E085F
:1006CA00F400E1207008223EC600C7010F30C800BE
:1006DA005D210B30F0003E08F400E1207008223E54
:1006EA00C600C7010530C80038210B30F0003E08AB
:1006FA00F400E1207008223EC600C7010730C80096
:10070A00B9210B30F0003E08F400E1207008223EC7
:10071A00C600C7010530C800FA200B30F0003E08B9
:10072A00F400E1207008223EC600C7018C210B307C
:10073A00F0003E08F400E1207008223EC6000130B5
:10074A00C7000130C8004C220B30F0003E08F4000C
:10075A00E1207008223EC6000130C700C80191207E
:10076A000B30F0003E08F400E1207008223EC6007B
:10077A000130C7000F30C8005D210B30F0003E0881
:10078A00F400E1207008223EC6000130C7000230A2
:10079A00C80038210B30F0003E08F400E120700850
:1007AA00223EC6000130C7000F30C800B9210B3005
:1007BA00F0003E08F400E1207008223EC600013035
:1007CA00C7000330C800FA200B30F0003E08F400DE
:1007DA00E1202230F00709307007840011308000D0
:1007EA000B30F0003E08F400E1207008223EC600FB
:1007FA000630C700E821BE0A462B3D0884000830AF
:10080A008000C501BE010130C200C5014508003A99
:10081A00031DC32C0530F0003E08F400E1207008E7
:10082A00F100F2010830F10705300318013EF20722
:10083A007108A0007208A1001B208A110A12B800D0
:10084A007008013EF100F2010318F20A0830F107BC
:10085A0005300318013EF2077108A0007208A100D2
:10086A001B208A110A12B9007008023EF100F20137
:10087A000318F20A0830F10705300318013EF2079F
:10088A007108A0007208A1001B208A110A12BA007E
:10089A007008033EF100F2010318F20A0830F1076A
:1008AA0005300318013EF2077108A0007208A10082
:1008BA001B208A110A12BB000430F007F101031849
:1008CA00F10A0830F00705300318013EF1077008F5
:1008DA00A0007108A1001B208A110A12BC00BE0ADE
:1008EA003808FF3A031D7B2CC201C32C3C08C50003
:1008FA003908C6004030C7004130C8006F220130B5
:10090A003802F000F101031CF1030B30F40000304F
:10091A00F500B6207008223EC6004008C70041080C
:10092A00C800262201303802F000F101031CF1034D
:10093A000B30F4000030F500B6207008223EC600E5
:10094A003A08C700E82101303802F000F101031C1F
:10095A00F1037008433E84003B08800001303802EE
:10096A00F000F101031CF1030B30F4000030F50034
:10097A00B6207008223EC60011230B2CBF0102309C
:10098A003F020318E62C3F08433E84000008003A61
:10099A00031DD92C0B30F0003F08F400E120700849
:1009AA00223EC6000B22E42C3F08433EF1007108A8
:1009BA0084000003F0007108840070088000BF0AF8
:1009CA00C42CC5030230FB008630FC009930FD00C0
:1009DA00FD0BED2CFC0BED2CFB0BED2C4208031D43
:1009EA000B2CBF0102303F020318062D0B30F0001A
:1009FA003F08F400E1207008223EC6000B22BF0A1D
:060A0A00F72C072C072D5C
:100A1000013403340634013403340134023406341F
:100A20000134033401340334063401340334013413
:100A300002340634013403340134033406340134FF
:100A4000033401340A3405340134033401340134ED
:100A500006340134033401340B34053401340334D7
:100A600001340834053405340034023408340334C6
:100A700001340334023403340434013403340234C3
:100A8000083404340134033401340B3404340134A5
:100A9000033401340334053401340334013408349D
:100AA00005340134033401340A3405340534003488
:100AB0000234033403340134033402340334043481
:100AC0000134033402340734043401340334013470
:100AD000033405340134033401340734053401345C
:100AE000033401340A3405340134033401340B3443
:100AF000053401340334FF3400340034003400344E
:100B0000003401340234083409340A341034113406
:020B100012349D
:04400E00F22F000786
:00000001FF
